{
  "contractName": "DeepDiveHub",
  "abi": [
    {
      "inputs": [
        {
          "internalType": "address",
          "name": "_tokenAddress",
          "type": "address"
        }
      ],
      "stateMutability": "nonpayable",
      "type": "constructor"
    },
    {
      "anonymous": false,
      "inputs": [
        {
          "indexed": true,
          "internalType": "address",
          "name": "grantee",
          "type": "address"
        },
        {
          "indexed": false,
          "internalType": "uint256",
          "name": "amount",
          "type": "uint256"
        }
      ],
      "name": "Deposit",
      "type": "event"
    },
    {
      "anonymous": false,
      "inputs": [
        {
          "indexed": true,
          "internalType": "address",
          "name": "previousOwner",
          "type": "address"
        },
        {
          "indexed": true,
          "internalType": "address",
          "name": "newOwner",
          "type": "address"
        }
      ],
      "name": "OwnershipTransferred",
      "type": "event"
    },
    {
      "anonymous": false,
      "inputs": [
        {
          "indexed": true,
          "internalType": "address",
          "name": "grantee",
          "type": "address"
        },
        {
          "indexed": false,
          "internalType": "uint256",
          "name": "amount",
          "type": "uint256"
        }
      ],
      "name": "UserDeposit",
      "type": "event"
    },
    {
      "anonymous": false,
      "inputs": [
        {
          "indexed": true,
          "internalType": "address",
          "name": "grantee",
          "type": "address"
        },
        {
          "indexed": false,
          "internalType": "uint256",
          "name": "amount",
          "type": "uint256"
        }
      ],
      "name": "Withdraw",
      "type": "event"
    },
    {
      "anonymous": false,
      "inputs": [
        {
          "indexed": true,
          "internalType": "address",
          "name": "grantee",
          "type": "address"
        },
        {
          "indexed": false,
          "internalType": "uint256",
          "name": "amount",
          "type": "uint256"
        }
      ],
      "name": "WithdrawToAdmin",
      "type": "event"
    },
    {
      "inputs": [
        {
          "internalType": "address",
          "name": "",
          "type": "address"
        }
      ],
      "name": "balances",
      "outputs": [
        {
          "internalType": "uint256",
          "name": "",
          "type": "uint256"
        }
      ],
      "stateMutability": "view",
      "type": "function"
    },
    {
      "inputs": [],
      "name": "owner",
      "outputs": [
        {
          "internalType": "address",
          "name": "",
          "type": "address"
        }
      ],
      "stateMutability": "view",
      "type": "function"
    },
    {
      "inputs": [],
      "name": "renounceOwnership",
      "outputs": [],
      "stateMutability": "nonpayable",
      "type": "function"
    },
    {
      "inputs": [],
      "name": "token",
      "outputs": [
        {
          "internalType": "contract IERC20",
          "name": "",
          "type": "address"
        }
      ],
      "stateMutability": "view",
      "type": "function"
    },
    {
      "inputs": [
        {
          "internalType": "address",
          "name": "newOwner",
          "type": "address"
        }
      ],
      "name": "transferOwnership",
      "outputs": [],
      "stateMutability": "nonpayable",
      "type": "function"
    },
    {
      "inputs": [],
      "name": "withdrawEnabled",
      "outputs": [
        {
          "internalType": "bool",
          "name": "",
          "type": "bool"
        }
      ],
      "stateMutability": "view",
      "type": "function"
    },
    {
      "inputs": [
        {
          "internalType": "uint256",
          "name": "amount",
          "type": "uint256"
        },
        {
          "internalType": "address",
          "name": "grantee",
          "type": "address"
        }
      ],
      "name": "userDeposit",
      "outputs": [],
      "stateMutability": "nonpayable",
      "type": "function"
    },
    {
      "inputs": [
        {
          "internalType": "uint256",
          "name": "amount",
          "type": "uint256"
        },
        {
          "internalType": "address",
          "name": "grantee",
          "type": "address"
        }
      ],
      "name": "deposit",
      "outputs": [],
      "stateMutability": "nonpayable",
      "type": "function"
    },
    {
      "inputs": [
        {
          "internalType": "uint256",
          "name": "amount",
          "type": "uint256"
        }
      ],
      "name": "withdraw",
      "outputs": [],
      "stateMutability": "nonpayable",
      "type": "function"
    },
    {
      "inputs": [
        {
          "internalType": "uint256",
          "name": "amount",
          "type": "uint256"
        },
        {
          "internalType": "address",
          "name": "grantee",
          "type": "address"
        }
      ],
      "name": "withdrawToAdmin",
      "outputs": [],
      "stateMutability": "nonpayable",
      "type": "function"
    },
    {
      "inputs": [
        {
          "internalType": "address",
          "name": "account",
          "type": "address"
        }
      ],
      "name": "getBalance",
      "outputs": [
        {
          "internalType": "uint256",
          "name": "",
          "type": "uint256"
        }
      ],
      "stateMutability": "view",
      "type": "function"
    },
    {
      "inputs": [],
      "name": "enableWithdraw",
      "outputs": [],
      "stateMutability": "nonpayable",
      "type": "function"
    },
    {
      "inputs": [],
      "name": "disableWithdraw",
      "outputs": [],
      "stateMutability": "nonpayable",
      "type": "function"
    }
  ],
  "bytecode": "0x60806040526000600260146101000a81548160ff0219169083151502179055503480156200002c57600080fd5b506040516200183238038062001832833981810160405281019062000052919062000209565b620000846200006f620000d3640100000000026401000000009004565b620000db640100000000026401000000009004565b6001808190555080600260006101000a81548173ffffffffffffffffffffffffffffffffffffffff021916908373ffffffffffffffffffffffffffffffffffffffff160217905550506200023b565b600033905090565b60008060009054906101000a900473ffffffffffffffffffffffffffffffffffffffff169050816000806101000a81548173ffffffffffffffffffffffffffffffffffffffff021916908373ffffffffffffffffffffffffffffffffffffffff1602179055508173ffffffffffffffffffffffffffffffffffffffff168173ffffffffffffffffffffffffffffffffffffffff167f8be0079c531659141344cd1fd0a4f28419497f9722a3daafe3b4186f6b6457e060405160405180910390a35050565b600080fd5b600073ffffffffffffffffffffffffffffffffffffffff82169050919050565b6000620001d182620001a4565b9050919050565b620001e381620001c4565b8114620001ef57600080fd5b50565b6000815190506200020381620001d8565b92915050565b6000602082840312156200022257620002216200019f565b5b60006200023284828501620001f2565b91505092915050565b6115e7806200024b6000396000f3fe608060405234801561001057600080fd5b50600436106100ec576000357c0100000000000000000000000000000000000000000000000000000000900480636e553f65116100a9578063ce8d388d11610083578063ce8d388d146101e1578063f2fde38b146101eb578063f8b2cb4f14610207578063fc0c546a14610237576100ec565b80636e553f651461019d578063715018a6146101b95780638da5cb5b146101c3576100ec565b806304da1776146100f15780632287e96a1461010d57806327e235e31461012b5780632db57ba81461015b5780632e1a7d4d146101775780635b984ff614610193575b600080fd5b61010b60048036038101906101069190610f72565b610255565b005b61011561044d565b6040516101229190610fcd565b60405180910390f35b61014560048036038101906101409190610fe8565b610460565b6040516101529190611024565b60405180910390f35b61017560048036038101906101709190610f72565b610478565b005b610191600480360381019061018c919061103f565b6106f8565b005b61019b6109be565b005b6101b760048036038101906101b29190610f72565b6109e3565b005b6101c1610be3565b005b6101cb610bf7565b6040516101d8919061107b565b60405180910390f35b6101e9610c20565b005b61020560048036038101906102009190610fe8565b610c45565b005b610221600480360381019061021c9190610fe8565b610cc8565b60405161022e9190611024565b60405180910390f35b61023f610d11565b60405161024c91906110f5565b60405180910390f35b61025d610d37565b600082116102a0576040517f08c379a000000000000000000000000000000000000000000000000000000000815260040161029790611193565b60405180910390fd5b600260009054906101000a900473ffffffffffffffffffffffffffffffffffffffff1673ffffffffffffffffffffffffffffffffffffffff166323b872dd3330856040518463ffffffff167c010000000000000000000000000000000000000000000000000000000002815260040161031b939291906111b3565b6020604051808303816000875af115801561033a573d6000803e3d6000fd5b505050506040513d601f19601f8201168201806040525081019061035e9190611216565b61039d576040517f08c379a00000000000000000000000000000000000000000000000000000000081526004016103949061128f565b60405180910390fd5b81600360008373ffffffffffffffffffffffffffffffffffffffff1673ffffffffffffffffffffffffffffffffffffffff16815260200190815260200160002060008282546103ec91906112de565b925050819055508073ffffffffffffffffffffffffffffffffffffffff167f35db3d768e685509e031bae369804ca7dc6656af739e079f1d3312cadc7b19d8836040516104399190611024565b60405180910390a2610449610d86565b5050565b600260149054906101000a900460ff1681565b60036020528060005260406000206000915090505481565b610480610d8f565b610488610d37565b600082116104cb576040517f08c379a00000000000000000000000000000000000000000000000000000000081526004016104c290611193565b60405180910390fd5b81600360008373ffffffffffffffffffffffffffffffffffffffff1673ffffffffffffffffffffffffffffffffffffffff16815260200190815260200160002054101561054d576040517f08c379a00000000000000000000000000000000000000000000000000000000081526004016105449061135e565b60405180910390fd5b81600360008373ffffffffffffffffffffffffffffffffffffffff1673ffffffffffffffffffffffffffffffffffffffff168152602001908152602001600020600082825461059c919061137e565b92505081905550600260009054906101000a900473ffffffffffffffffffffffffffffffffffffffff1673ffffffffffffffffffffffffffffffffffffffff1663a9059cbb33846040518363ffffffff167c010000000000000000000000000000000000000000000000000000000002815260040161061c9291906113b2565b6020604051808303816000875af115801561063b573d6000803e3d6000fd5b505050506040513d601f19601f8201168201806040525081019061065f9190611216565b61069e576040517f08c379a00000000000000000000000000000000000000000000000000000000081526004016106959061128f565b60405180910390fd5b8073ffffffffffffffffffffffffffffffffffffffff167fbb05458e7da2c1051d789388f783450df1c81402cfb52fb5ea8928f7ba66dfa8836040516106e49190611024565b60405180910390a26106f4610d86565b5050565b610700610d37565b600260149054906101000a900460ff1661074f576040517f08c379a000000000000000000000000000000000000000000000000000000000815260040161074690611427565b60405180910390fd5b60008111610792576040517f08c379a000000000000000000000000000000000000000000000000000000000815260040161078990611193565b60405180910390fd5b80600360003373ffffffffffffffffffffffffffffffffffffffff1673ffffffffffffffffffffffffffffffffffffffff168152602001908152602001600020541015610814576040517f08c379a000000000000000000000000000000000000000000000000000000000815260040161080b9061135e565b60405180910390fd5b80600360003373ffffffffffffffffffffffffffffffffffffffff1673ffffffffffffffffffffffffffffffffffffffff1681526020019081526020016000206000828254610863919061137e565b92505081905550600260009054906101000a900473ffffffffffffffffffffffffffffffffffffffff1673ffffffffffffffffffffffffffffffffffffffff1663a9059cbb33836040518363ffffffff167c01000000000000000000000000000000000000000000000000000000000281526004016108e39291906113b2565b6020604051808303816000875af1158015610902573d6000803e3d6000fd5b505050506040513d601f19601f820116820180604052508101906109269190611216565b610965576040517f08c379a000000000000000000000000000000000000000000000000000000000815260040161095c9061128f565b60405180910390fd5b3373ffffffffffffffffffffffffffffffffffffffff167f884edad9ce6fa2440d8a54cc123490eb96d2768479d49ff9c7366125a9424364826040516109ab9190611024565b60405180910390a26109bb610d86565b50565b6109c6610d8f565b6001600260146101000a81548160ff021916908315150217905550565b6109eb610d8f565b6109f3610d37565b60008211610a36576040517f08c379a0000000000000000000000000000000000000000000000000000000008152600401610a2d90611193565b60405180910390fd5b600260009054906101000a900473ffffffffffffffffffffffffffffffffffffffff1673ffffffffffffffffffffffffffffffffffffffff166323b872dd3330856040518463ffffffff167c0100000000000000000000000000000000000000000000000000000000028152600401610ab1939291906111b3565b6020604051808303816000875af1158015610ad0573d6000803e3d6000fd5b505050506040513d601f19601f82011682018060405250810190610af49190611216565b610b33576040517f08c379a0000000000000000000000000000000000000000000000000000000008152600401610b2a9061128f565b60405180910390fd5b81600360008373ffffffffffffffffffffffffffffffffffffffff1673ffffffffffffffffffffffffffffffffffffffff1681526020019081526020016000206000828254610b8291906112de565b925050819055508073ffffffffffffffffffffffffffffffffffffffff167fe1fffcc4923d04b559f4d29a8bfc6cda04eb5b0d3c460751c2402c5c5cc9109c83604051610bcf9190611024565b60405180910390a2610bdf610d86565b5050565b610beb610d8f565b610bf56000610e0d565b565b60008060009054906101000a900473ffffffffffffffffffffffffffffffffffffffff16905090565b610c28610d8f565b6000600260146101000a81548160ff021916908315150217905550565b610c4d610d8f565b600073ffffffffffffffffffffffffffffffffffffffff168173ffffffffffffffffffffffffffffffffffffffff1603610cbc576040517f08c379a0000000000000000000000000000000000000000000000000000000008152600401610cb3906114b9565b60405180910390fd5b610cc581610e0d565b50565b6000600360008373ffffffffffffffffffffffffffffffffffffffff1673ffffffffffffffffffffffffffffffffffffffff168152602001908152602001600020549050919050565b600260009054906101000a900473ffffffffffffffffffffffffffffffffffffffff1681565b600260015403610d7c576040517f08c379a0000000000000000000000000000000000000000000000000000000008152600401610d7390611525565b60405180910390fd5b6002600181905550565b60018081905550565b610d97610ed1565b73ffffffffffffffffffffffffffffffffffffffff16610db5610bf7565b73ffffffffffffffffffffffffffffffffffffffff1614610e0b576040517f08c379a0000000000000000000000000000000000000000000000000000000008152600401610e0290611591565b60405180910390fd5b565b60008060009054906101000a900473ffffffffffffffffffffffffffffffffffffffff169050816000806101000a81548173ffffffffffffffffffffffffffffffffffffffff021916908373ffffffffffffffffffffffffffffffffffffffff1602179055508173ffffffffffffffffffffffffffffffffffffffff168173ffffffffffffffffffffffffffffffffffffffff167f8be0079c531659141344cd1fd0a4f28419497f9722a3daafe3b4186f6b6457e060405160405180910390a35050565b600033905090565b600080fd5b6000819050919050565b610ef181610ede565b8114610efc57600080fd5b50565b600081359050610f0e81610ee8565b92915050565b600073ffffffffffffffffffffffffffffffffffffffff82169050919050565b6000610f3f82610f14565b9050919050565b610f4f81610f34565b8114610f5a57600080fd5b50565b600081359050610f6c81610f46565b92915050565b60008060408385031215610f8957610f88610ed9565b5b6000610f9785828601610eff565b9250506020610fa885828601610f5d565b9150509250929050565b60008115159050919050565b610fc781610fb2565b82525050565b6000602082019050610fe26000830184610fbe565b92915050565b600060208284031215610ffe57610ffd610ed9565b5b600061100c84828501610f5d565b91505092915050565b61101e81610ede565b82525050565b60006020820190506110396000830184611015565b92915050565b60006020828403121561105557611054610ed9565b5b600061106384828501610eff565b91505092915050565b61107581610f34565b82525050565b6000602082019050611090600083018461106c565b92915050565b6000819050919050565b60006110bb6110b66110b184610f14565b611096565b610f14565b9050919050565b60006110cd826110a0565b9050919050565b60006110df826110c2565b9050919050565b6110ef816110d4565b82525050565b600060208201905061110a60008301846110e6565b92915050565b600082825260208201905092915050565b7f416d6f756e742073686f756c642062652067726561746572207468616e207a6560008201527f726f000000000000000000000000000000000000000000000000000000000000602082015250565b600061117d602283611110565b915061118882611121565b604082019050919050565b600060208201905081810360008301526111ac81611170565b9050919050565b60006060820190506111c8600083018661106c565b6111d5602083018561106c565b6111e26040830184611015565b949350505050565b6111f381610fb2565b81146111fe57600080fd5b50565b600081519050611210816111ea565b92915050565b60006020828403121561122c5761122b610ed9565b5b600061123a84828501611201565b91505092915050565b7f546f6b656e207472616e73666572206661696c65640000000000000000000000600082015250565b6000611279601583611110565b915061128482611243565b602082019050919050565b600060208201905081810360008301526112a88161126c565b9050919050565b7f4e487b7100000000000000000000000000000000000000000000000000000000600052601160045260246000fd5b60006112e982610ede565b91506112f483610ede565b925082820190508082111561130c5761130b6112af565b5b92915050565b7f496e73756666696369656e742062616c616e6365000000000000000000000000600082015250565b6000611348601483611110565b915061135382611312565b602082019050919050565b600060208201905081810360008301526113778161133b565b9050919050565b600061138982610ede565b915061139483610ede565b92508282039050818111156113ac576113ab6112af565b5b92915050565b60006040820190506113c7600083018561106c565b6113d46020830184611015565b9392505050565b7f5769746864726177206973206e6f7420656e61626c6564000000000000000000600082015250565b6000611411601783611110565b915061141c826113db565b602082019050919050565b6000602082019050818103600083015261144081611404565b9050919050565b7f4f776e61626c653a206e6577206f776e657220697320746865207a65726f206160008201527f6464726573730000000000000000000000000000000000000000000000000000602082015250565b60006114a3602683611110565b91506114ae82611447565b604082019050919050565b600060208201905081810360008301526114d281611496565b9050919050565b7f5265656e7472616e637947756172643a207265656e7472616e742063616c6c00600082015250565b600061150f601f83611110565b915061151a826114d9565b602082019050919050565b6000602082019050818103600083015261153e81611502565b9050919050565b7f4f776e61626c653a2063616c6c6572206973206e6f7420746865206f776e6572600082015250565b600061157b602083611110565b915061158682611545565b602082019050919050565b600060208201905081810360008301526115aa8161156e565b905091905056fea264697066735822122000ffe3996d14d560ff27e08384c7dcd0809b78ac38db75b47105f292b759cdfe64736f6c63430008140033",
  "immutableReferences": {},
  "source": "// SPDX-License-Identifier: MIT\npragma solidity ^0.8.0;\n\n// Import the ERC20 interface\nimport \"@openzeppelin/contracts/token/ERC20/IERC20.sol\";\nimport \"@openzeppelin/contracts/access/Ownable.sol\";\n// import reentrancy guard\nimport \"@openzeppelin/contracts/security/ReentrancyGuard.sol\";\n\ncontract DeepDiveHub is Ownable, ReentrancyGuard {\n    IERC20 public token;\n\n    // Add a boolean variable to track whether the contract is paused\n    bool public withdrawEnabled = false;\n    mapping(address => uint256) public balances;\n\n    // Add indexed events for deposit, withdraw and admin withdraw\n\n    event UserDeposit(address indexed grantee, uint256 amount);\n    event Deposit(address indexed grantee, uint256 amount);\n    event Withdraw(address indexed grantee, uint256 amount);\n    event WithdrawToAdmin(address indexed grantee, uint256 amount);\n\n    constructor (address _tokenAddress) {\n        token = IERC20(_tokenAddress);\n    }\n\n    function userDeposit(uint256 amount, address grantee) external nonReentrant {\n        require(amount > 0, \"Amount should be greater than zero\");\n        require(token.transferFrom(msg.sender, address(this), amount), \"Token transfer failed\");\n        balances[grantee] += amount;\n        emit UserDeposit(grantee, amount);\n    }\n\n    function deposit(uint256 amount, address grantee) external onlyOwner nonReentrant {\n        require(amount > 0, \"Amount should be greater than zero\");\n        require(token.transferFrom(msg.sender, address(this), amount), \"Token transfer failed\");\n        balances[grantee] += amount;\n        emit Deposit(grantee, amount);\n    }\n\n    // withraw should be callable only if the contract owner has enabled the withdraw feature\n    function withdraw(uint256 amount) external nonReentrant {\n        require(withdrawEnabled, \"Withdraw is not enabled\");\n        require(amount > 0, \"Amount should be greater than zero\");\n        require(balances[msg.sender] >= amount, \"Insufficient balance\");\n\n        balances[msg.sender] -= amount;\n        require(token.transfer(msg.sender, amount), \"Token transfer failed\");\n        emit Withdraw(msg.sender, amount);\n    }\n\n    function withdrawToAdmin(uint256 amount, address grantee) external onlyOwner nonReentrant {\n        require(amount > 0, \"Amount should be greater than zero\");\n        require(balances[grantee] >= amount, \"Insufficient balance\");\n\n        balances[grantee] -= amount;\n        require(token.transfer(msg.sender, amount), \"Token transfer failed\");\n        emit WithdrawToAdmin(grantee, amount);\n    }\n\n    // Function to check the balance of a given address\n    function getBalance(address account) external view returns (uint256) {\n        return balances[account];\n    }\n\n    // Function to enable withdraw\n    function enableWithdraw() external onlyOwner {\n        withdrawEnabled = true;\n    }\n\n    // Function to disable withdraw\n    function disableWithdraw() external onlyOwner {\n        withdrawEnabled = false;\n    }\n}",
  "sourcePath": "/home/menezes/oceano-be/oceano-contract/contracts/DeepDiveHub.sol",
  "compiler": {
    "name": "solc",
    "version": "0.8.20+commit.a1b79de6.Emscripten.clang"
  },
  "schemaVersion": "3.4.14",
  "updatedAt": "2023-08-07T16:55:18.518Z",
  "devdoc": {
    "kind": "dev",
    "methods": {
      "owner()": {
        "details": "Returns the address of the current owner."
      },
      "renounceOwnership()": {
        "details": "Leaves the contract without owner. It will not be possible to call `onlyOwner` functions. Can only be called by the current owner. NOTE: Renouncing ownership will leave the contract without an owner, thereby disabling any functionality that is only available to the owner."
      },
      "transferOwnership(address)": {
        "details": "Transfers ownership of the contract to a new account (`newOwner`). Can only be called by the current owner."
      }
    },
    "version": 1
  },
  "userdoc": {
    "kind": "user",
    "methods": {},
    "version": 1
  }
}